{
  "contractName": "Nfts",
  "abi": [
    {
      "inputs": [
        {
          "internalType": "string",
          "name": "_name",
          "type": "string"
        },
        {
          "internalType": "string",
          "name": "_symbol",
          "type": "string"
        }
      ],
      "stateMutability": "nonpayable",
      "type": "constructor"
    },
    {
      "anonymous": false,
      "inputs": [
        {
          "indexed": true,
          "internalType": "address",
          "name": "owner",
          "type": "address"
        },
        {
          "indexed": true,
          "internalType": "address",
          "name": "approved",
          "type": "address"
        },
        {
          "indexed": true,
          "internalType": "uint256",
          "name": "tokenId",
          "type": "uint256"
        }
      ],
      "name": "Approval",
      "type": "event"
    },
    {
      "anonymous": false,
      "inputs": [
        {
          "indexed": true,
          "internalType": "address",
          "name": "owner",
          "type": "address"
        },
        {
          "indexed": true,
          "internalType": "address",
          "name": "operator",
          "type": "address"
        },
        {
          "indexed": false,
          "internalType": "bool",
          "name": "approved",
          "type": "bool"
        }
      ],
      "name": "ApprovalForAll",
      "type": "event"
    },
    {
      "anonymous": false,
      "inputs": [
        {
          "indexed": true,
          "internalType": "address",
          "name": "previousOwner",
          "type": "address"
        },
        {
          "indexed": true,
          "internalType": "address",
          "name": "newOwner",
          "type": "address"
        }
      ],
      "name": "OwnershipTransferred",
      "type": "event"
    },
    {
      "anonymous": false,
      "inputs": [
        {
          "indexed": true,
          "internalType": "address",
          "name": "from",
          "type": "address"
        },
        {
          "indexed": true,
          "internalType": "address",
          "name": "to",
          "type": "address"
        },
        {
          "indexed": true,
          "internalType": "uint256",
          "name": "tokenId",
          "type": "uint256"
        }
      ],
      "name": "Transfer",
      "type": "event"
    },
    {
      "inputs": [
        {
          "internalType": "address",
          "name": "to",
          "type": "address"
        },
        {
          "internalType": "uint256",
          "name": "tokenId",
          "type": "uint256"
        }
      ],
      "name": "approve",
      "outputs": [],
      "stateMutability": "nonpayable",
      "type": "function"
    },
    {
      "inputs": [
        {
          "internalType": "address",
          "name": "owner",
          "type": "address"
        }
      ],
      "name": "balanceOf",
      "outputs": [
        {
          "internalType": "uint256",
          "name": "",
          "type": "uint256"
        }
      ],
      "stateMutability": "view",
      "type": "function",
      "constant": true
    },
    {
      "inputs": [],
      "name": "baseURI",
      "outputs": [
        {
          "internalType": "string",
          "name": "",
          "type": "string"
        }
      ],
      "stateMutability": "view",
      "type": "function",
      "constant": true
    },
    {
      "inputs": [
        {
          "internalType": "uint256",
          "name": "tokenId",
          "type": "uint256"
        }
      ],
      "name": "getApproved",
      "outputs": [
        {
          "internalType": "address",
          "name": "",
          "type": "address"
        }
      ],
      "stateMutability": "view",
      "type": "function",
      "constant": true
    },
    {
      "inputs": [
        {
          "internalType": "address",
          "name": "owner",
          "type": "address"
        },
        {
          "internalType": "address",
          "name": "operator",
          "type": "address"
        }
      ],
      "name": "isApprovedForAll",
      "outputs": [
        {
          "internalType": "bool",
          "name": "",
          "type": "bool"
        }
      ],
      "stateMutability": "view",
      "type": "function",
      "constant": true
    },
    {
      "inputs": [],
      "name": "name",
      "outputs": [
        {
          "internalType": "string",
          "name": "",
          "type": "string"
        }
      ],
      "stateMutability": "view",
      "type": "function",
      "constant": true
    },
    {
      "inputs": [],
      "name": "owner",
      "outputs": [
        {
          "internalType": "address",
          "name": "",
          "type": "address"
        }
      ],
      "stateMutability": "view",
      "type": "function",
      "constant": true
    },
    {
      "inputs": [
        {
          "internalType": "uint256",
          "name": "tokenId",
          "type": "uint256"
        }
      ],
      "name": "ownerOf",
      "outputs": [
        {
          "internalType": "address",
          "name": "",
          "type": "address"
        }
      ],
      "stateMutability": "view",
      "type": "function",
      "constant": true
    },
    {
      "inputs": [],
      "name": "renounceOwnership",
      "outputs": [],
      "stateMutability": "nonpayable",
      "type": "function"
    },
    {
      "inputs": [
        {
          "internalType": "address",
          "name": "from",
          "type": "address"
        },
        {
          "internalType": "address",
          "name": "to",
          "type": "address"
        },
        {
          "internalType": "uint256",
          "name": "tokenId",
          "type": "uint256"
        }
      ],
      "name": "safeTransferFrom",
      "outputs": [],
      "stateMutability": "nonpayable",
      "type": "function"
    },
    {
      "inputs": [
        {
          "internalType": "address",
          "name": "from",
          "type": "address"
        },
        {
          "internalType": "address",
          "name": "to",
          "type": "address"
        },
        {
          "internalType": "uint256",
          "name": "tokenId",
          "type": "uint256"
        },
        {
          "internalType": "bytes",
          "name": "data",
          "type": "bytes"
        }
      ],
      "name": "safeTransferFrom",
      "outputs": [],
      "stateMutability": "nonpayable",
      "type": "function"
    },
    {
      "inputs": [
        {
          "internalType": "address",
          "name": "operator",
          "type": "address"
        },
        {
          "internalType": "bool",
          "name": "approved",
          "type": "bool"
        }
      ],
      "name": "setApprovalForAll",
      "outputs": [],
      "stateMutability": "nonpayable",
      "type": "function"
    },
    {
      "inputs": [
        {
          "internalType": "bytes4",
          "name": "interfaceId",
          "type": "bytes4"
        }
      ],
      "name": "supportsInterface",
      "outputs": [
        {
          "internalType": "bool",
          "name": "",
          "type": "bool"
        }
      ],
      "stateMutability": "view",
      "type": "function",
      "constant": true
    },
    {
      "inputs": [],
      "name": "symbol",
      "outputs": [
        {
          "internalType": "string",
          "name": "",
          "type": "string"
        }
      ],
      "stateMutability": "view",
      "type": "function",
      "constant": true
    },
    {
      "inputs": [
        {
          "internalType": "uint256",
          "name": "index",
          "type": "uint256"
        }
      ],
      "name": "tokenByIndex",
      "outputs": [
        {
          "internalType": "uint256",
          "name": "",
          "type": "uint256"
        }
      ],
      "stateMutability": "view",
      "type": "function",
      "constant": true
    },
    {
      "inputs": [
        {
          "internalType": "address",
          "name": "owner",
          "type": "address"
        },
        {
          "internalType": "uint256",
          "name": "index",
          "type": "uint256"
        }
      ],
      "name": "tokenOfOwnerByIndex",
      "outputs": [
        {
          "internalType": "uint256",
          "name": "",
          "type": "uint256"
        }
      ],
      "stateMutability": "view",
      "type": "function",
      "constant": true
    },
    {
      "inputs": [],
      "name": "totalSupply",
      "outputs": [
        {
          "internalType": "uint256",
          "name": "",
          "type": "uint256"
        }
      ],
      "stateMutability": "view",
      "type": "function",
      "constant": true
    },
    {
      "inputs": [
        {
          "internalType": "address",
          "name": "from",
          "type": "address"
        },
        {
          "internalType": "address",
          "name": "to",
          "type": "address"
        },
        {
          "internalType": "uint256",
          "name": "tokenId",
          "type": "uint256"
        }
      ],
      "name": "transferFrom",
      "outputs": [],
      "stateMutability": "nonpayable",
      "type": "function"
    },
    {
      "inputs": [
        {
          "internalType": "address",
          "name": "newOwner",
          "type": "address"
        }
      ],
      "name": "transferOwnership",
      "outputs": [],
      "stateMutability": "nonpayable",
      "type": "function"
    },
    {
      "inputs": [
        {
          "internalType": "address",
          "name": "_to",
          "type": "address"
        },
        {
          "internalType": "string[]",
          "name": "_hashes",
          "type": "string[]"
        }
      ],
      "name": "mint",
      "outputs": [],
      "stateMutability": "nonpayable",
      "type": "function"
    },
    {
      "inputs": [
        {
          "internalType": "address",
          "name": "_owner",
          "type": "address"
        }
      ],
      "name": "walletOfOwner",
      "outputs": [
        {
          "internalType": "uint256[]",
          "name": "",
          "type": "uint256[]"
        }
      ],
      "stateMutability": "view",
      "type": "function",
      "constant": true
    },
    {
      "inputs": [
        {
          "internalType": "uint256",
          "name": "tokenId",
          "type": "uint256"
        }
      ],
      "name": "tokenURI",
      "outputs": [
        {
          "internalType": "string",
          "name": "",
          "type": "string"
        }
      ],
      "stateMutability": "view",
      "type": "function",
      "constant": true
    },
    {
      "inputs": [
        {
          "internalType": "string",
          "name": "_newBaseURI",
          "type": "string"
        }
      ],
      "name": "_setBaseURI",
      "outputs": [],
      "stateMutability": "nonpayable",
      "type": "function"
    }
  ],
  "bytecode": "0x60806040523480156200001157600080fd5b5060405162003ed438038062003ed4833981810160405281019062000037919062000313565b818181600090816200004a9190620005e3565b5080600190816200005c9190620005e3565b5050506200007f62000073620000b260201b60201c565b620000ba60201b60201c565b60405180606001604052806022815260200162003eb260229139600b9081620000a99190620005e3565b505050620006ca565b600033905090565b6000600a60009054906101000a900473ffffffffffffffffffffffffffffffffffffffff16905081600a60006101000a81548173ffffffffffffffffffffffffffffffffffffffff021916908373ffffffffffffffffffffffffffffffffffffffff1602179055508173ffffffffffffffffffffffffffffffffffffffff168173ffffffffffffffffffffffffffffffffffffffff167f8be0079c531659141344cd1fd0a4f28419497f9722a3daafe3b4186f6b6457e060405160405180910390a35050565b6000604051905090565b600080fd5b600080fd5b600080fd5b600080fd5b6000601f19601f8301169050919050565b7f4e487b7100000000000000000000000000000000000000000000000000000000600052604160045260246000fd5b620001e9826200019e565b810181811067ffffffffffffffff821117156200020b576200020a620001af565b5b80604052505050565b60006200022062000180565b90506200022e8282620001de565b919050565b600067ffffffffffffffff821115620002515762000250620001af565b5b6200025c826200019e565b9050602081019050919050565b60005b83811015620002895780820151818401526020810190506200026c565b60008484015250505050565b6000620002ac620002a68462000233565b62000214565b905082815260208101848484011115620002cb57620002ca62000199565b5b620002d884828562000269565b509392505050565b600082601f830112620002f857620002f762000194565b5b81516200030a84826020860162000295565b91505092915050565b600080604083850312156200032d576200032c6200018a565b5b600083015167ffffffffffffffff8111156200034e576200034d6200018f565b5b6200035c85828601620002e0565b925050602083015167ffffffffffffffff81111562000380576200037f6200018f565b5b6200038e85828601620002e0565b9150509250929050565b600081519050919050565b7f4e487b7100000000000000000000000000000000000000000000000000000000600052602260045260246000fd5b60006002820490506001821680620003eb57607f821691505b602082108103620004015762000400620003a3565b5b50919050565b60008190508160005260206000209050919050565b60006020601f8301049050919050565b600082821b905092915050565b6000600883026200046b7fffffffffffffffffffffffffffffffffffffffffffffffffffffffffffffffff826200042c565b6200047786836200042c565b95508019841693508086168417925050509392505050565b6000819050919050565b6000819050919050565b6000620004c4620004be620004b8846200048f565b62000499565b6200048f565b9050919050565b6000819050919050565b620004e083620004a3565b620004f8620004ef82620004cb565b84845462000439565b825550505050565b600090565b6200050f62000500565b6200051c818484620004d5565b505050565b5b8181101562000544576200053860008262000505565b60018101905062000522565b5050565b601f82111562000593576200055d8162000407565b62000568846200041c565b8101602085101562000578578190505b6200059062000587856200041c565b83018262000521565b50505b505050565b600082821c905092915050565b6000620005b86000198460080262000598565b1980831691505092915050565b6000620005d38383620005a5565b9150826002028217905092915050565b620005ee8262000398565b67ffffffffffffffff8111156200060a5762000609620001af565b5b620006168254620003d2565b6200062382828562000548565b600060209050601f8311600181146200065b576000841562000646578287015190505b620006528582620005c5565b865550620006c2565b601f1984166200066b8662000407565b60005b8281101562000695578489015182556001820191506020850194506020810190506200066e565b86831015620006b55784890151620006b1601f891682620005a5565b8355505b6001600288020188555050505b505050505050565b6137d880620006da6000396000f3fe608060405234801561001057600080fd5b506004361061014d5760003560e01c80636352211e116100c3578063a22cb4651161007c578063a22cb465146103b2578063b88d4fde146103ce578063c87b56dd146103ea578063d90794cf1461041a578063e985e9c514610436578063f2fde38b146104665761014d565b80636352211e146102ee5780636c0360eb1461031e57806370a082311461033c578063715018a61461036c5780638da5cb5b1461037657806395d89b41146103945761014d565b806323b872dd1161011557806323b872dd1461020a5780632f745c591461022657806331b5b9071461025657806342842e0e14610272578063438b63001461028e5780634f6ccce7146102be5761014d565b806301ffc9a71461015257806306fdde0314610182578063081812fc146101a0578063095ea7b3146101d057806318160ddd146101ec575b600080fd5b61016c60048036038101906101679190612105565b610482565b604051610179919061214d565b60405180910390f35b61018a6104fc565b60405161019791906121f8565b60405180910390f35b6101ba60048036038101906101b59190612250565b61058e565b6040516101c791906122be565b60405180910390f35b6101ea60048036038101906101e59190612305565b6105d4565b005b6101f46106eb565b6040516102019190612354565b60405180910390f35b610224600480360381019061021f919061236f565b6106f8565b005b610240600480360381019061023b9190612305565b610758565b60405161024d9190612354565b60405180910390f35b610270600480360381019061026b91906124f7565b6107fd565b005b61028c6004803603810190610287919061236f565b610818565b005b6102a860048036038101906102a39190612540565b610838565b6040516102b5919061262b565b60405180910390f35b6102d860048036038101906102d39190612250565b6108e6565b6040516102e59190612354565b60405180910390f35b61030860048036038101906103039190612250565b610957565b60405161031591906122be565b60405180910390f35b610326610a08565b60405161033391906121f8565b60405180910390f35b61035660048036038101906103519190612540565b610a96565b6040516103639190612354565b60405180910390f35b610374610b4d565b005b61037e610b61565b60405161038b91906122be565b60405180910390f35b61039c610b8b565b6040516103a991906121f8565b60405180910390f35b6103cc60048036038101906103c79190612679565b610c1d565b005b6103e860048036038101906103e3919061275a565b610c33565b005b61040460048036038101906103ff9190612250565b610c95565b60405161041191906121f8565b60405180910390f35b610434600480360381019061042f91906128c3565b610d71565b005b610450600480360381019061044b919061291f565b610e07565b60405161045d919061214d565b60405180910390f35b610480600480360381019061047b9190612540565b610e9b565b005b60007f780e9d63000000000000000000000000000000000000000000000000000000007bffffffffffffffffffffffffffffffffffffffffffffffffffffffff1916827bffffffffffffffffffffffffffffffffffffffffffffffffffffffff191614806104f557506104f482610f1e565b5b9050919050565b60606000805461050b9061298e565b80601f01602080910402602001604051908101604052809291908181526020018280546105379061298e565b80156105845780601f1061055957610100808354040283529160200191610584565b820191906000526020600020905b81548152906001019060200180831161056757829003601f168201915b5050505050905090565b600061059982611000565b6004600083815260200190815260200160002060009054906101000a900473ffffffffffffffffffffffffffffffffffffffff169050919050565b60006105df82610957565b90508073ffffffffffffffffffffffffffffffffffffffff168373ffffffffffffffffffffffffffffffffffffffff160361064f576040517f08c379a000000000000000000000000000000000000000000000000000000000815260040161064690612a31565b60405180910390fd5b8073ffffffffffffffffffffffffffffffffffffffff1661066e61104b565b73ffffffffffffffffffffffffffffffffffffffff16148061069d575061069c8161069761104b565b610e07565b5b6106dc576040517f08c379a00000000000000000000000000000000000000000000000000000000081526004016106d390612ac3565b60405180910390fd5b6106e68383611053565b505050565b6000600880549050905090565b61070961070361104b565b8261110c565b610748576040517f08c379a000000000000000000000000000000000000000000000000000000000815260040161073f90612b55565b60405180910390fd5b6107538383836111a1565b505050565b600061076383610a96565b82106107a4576040517f08c379a000000000000000000000000000000000000000000000000000000000815260040161079b90612be7565b60405180910390fd5b600660008473ffffffffffffffffffffffffffffffffffffffff1673ffffffffffffffffffffffffffffffffffffffff168152602001908152602001600020600083815260200190815260200160002054905092915050565b610805611407565b80600b90816108149190612db3565b5050565b61083383838360405180602001604052806000815250610c33565b505050565b6060600061084583610a96565b905060008167ffffffffffffffff811115610863576108626123cc565b5b6040519080825280602002602001820160405280156108915781602001602082028036833780820191505090505b50905060005b828110156108db576108a98582610758565b8282815181106108bc576108bb612e85565b5b60200260200101818152505080806108d390612ee3565b915050610897565b508092505050919050565b60006108f06106eb565b8210610931576040517f08c379a000000000000000000000000000000000000000000000000000000000815260040161092890612f9d565b60405180910390fd5b6008828154811061094557610944612e85565b5b90600052602060002001549050919050565b6000806002600084815260200190815260200160002060009054906101000a900473ffffffffffffffffffffffffffffffffffffffff169050600073ffffffffffffffffffffffffffffffffffffffff168173ffffffffffffffffffffffffffffffffffffffff16036109ff576040517f08c379a00000000000000000000000000000000000000000000000000000000081526004016109f690613009565b60405180910390fd5b80915050919050565b600b8054610a159061298e565b80601f0160208091040260200160405190810160405280929190818152602001828054610a419061298e565b8015610a8e5780601f10610a6357610100808354040283529160200191610a8e565b820191906000526020600020905b815481529060010190602001808311610a7157829003601f168201915b505050505081565b60008073ffffffffffffffffffffffffffffffffffffffff168273ffffffffffffffffffffffffffffffffffffffff1603610b06576040517f08c379a0000000000000000000000000000000000000000000000000000000008152600401610afd9061309b565b60405180910390fd5b600360008373ffffffffffffffffffffffffffffffffffffffff1673ffffffffffffffffffffffffffffffffffffffff168152602001908152602001600020549050919050565b610b55611407565b610b5f6000611485565b565b6000600a60009054906101000a900473ffffffffffffffffffffffffffffffffffffffff16905090565b606060018054610b9a9061298e565b80601f0160208091040260200160405190810160405280929190818152602001828054610bc69061298e565b8015610c135780601f10610be857610100808354040283529160200191610c13565b820191906000526020600020905b815481529060010190602001808311610bf657829003601f168201915b5050505050905090565b610c2f610c2861104b565b838361154b565b5050565b610c44610c3e61104b565b8361110c565b610c83576040517f08c379a0000000000000000000000000000000000000000000000000000000008152600401610c7a90612b55565b60405180910390fd5b610c8f848484846116b7565b50505050565b6060610ca082611713565b610cdf576040517f08c379a0000000000000000000000000000000000000000000000000000000008152600401610cd69061312d565b60405180910390fd5b6000610ce961177f565b905060008151118015610d1b57506000600c60008581526020019081526020016000208054610d179061298e565b9050115b610d345760405180602001604052806000815250610d69565b80600c6000858152602001908152602001600020604051602001610d5992919061320c565b6040516020818303038152906040525b915050919050565b610d79611407565b6000610d836106eb565b905060005b8251811015610e0157610da784600184610da29190613230565b611811565b828181518110610dba57610db9612e85565b5b6020026020010151600c6000600185610dd39190613230565b81526020019081526020016000209081610ded9190612db3565b508080610df990612ee3565b915050610d88565b50505050565b6000600560008473ffffffffffffffffffffffffffffffffffffffff1673ffffffffffffffffffffffffffffffffffffffff16815260200190815260200160002060008373ffffffffffffffffffffffffffffffffffffffff1673ffffffffffffffffffffffffffffffffffffffff16815260200190815260200160002060009054906101000a900460ff16905092915050565b610ea3611407565b600073ffffffffffffffffffffffffffffffffffffffff168173ffffffffffffffffffffffffffffffffffffffff1603610f12576040517f08c379a0000000000000000000000000000000000000000000000000000000008152600401610f09906132d6565b60405180910390fd5b610f1b81611485565b50565b60007f80ac58cd000000000000000000000000000000000000000000000000000000007bffffffffffffffffffffffffffffffffffffffffffffffffffffffff1916827bffffffffffffffffffffffffffffffffffffffffffffffffffffffff19161480610fe957507f5b5e139f000000000000000000000000000000000000000000000000000000007bffffffffffffffffffffffffffffffffffffffffffffffffffffffff1916827bffffffffffffffffffffffffffffffffffffffffffffffffffffffff1916145b80610ff95750610ff88261182f565b5b9050919050565b61100981611713565b611048576040517f08c379a000000000000000000000000000000000000000000000000000000000815260040161103f90613009565b60405180910390fd5b50565b600033905090565b816004600083815260200190815260200160002060006101000a81548173ffffffffffffffffffffffffffffffffffffffff021916908373ffffffffffffffffffffffffffffffffffffffff160217905550808273ffffffffffffffffffffffffffffffffffffffff166110c683610957565b73ffffffffffffffffffffffffffffffffffffffff167f8c5be1e5ebec7d5bd14f71427d1e84f3dd0314c0f7b2291e5b200ac8c7c3b92560405160405180910390a45050565b60008061111883610957565b90508073ffffffffffffffffffffffffffffffffffffffff168473ffffffffffffffffffffffffffffffffffffffff16148061115a57506111598185610e07565b5b8061119857508373ffffffffffffffffffffffffffffffffffffffff166111808461058e565b73ffffffffffffffffffffffffffffffffffffffff16145b91505092915050565b8273ffffffffffffffffffffffffffffffffffffffff166111c182610957565b73ffffffffffffffffffffffffffffffffffffffff1614611217576040517f08c379a000000000000000000000000000000000000000000000000000000000815260040161120e90613368565b60405180910390fd5b600073ffffffffffffffffffffffffffffffffffffffff168273ffffffffffffffffffffffffffffffffffffffff1603611286576040517f08c379a000000000000000000000000000000000000000000000000000000000815260040161127d906133fa565b60405180910390fd5b611291838383611899565b61129c600082611053565b6001600360008573ffffffffffffffffffffffffffffffffffffffff1673ffffffffffffffffffffffffffffffffffffffff16815260200190815260200160002060008282546112ec919061341a565b925050819055506001600360008473ffffffffffffffffffffffffffffffffffffffff1673ffffffffffffffffffffffffffffffffffffffff16815260200190815260200160002060008282546113439190613230565b92505081905550816002600083815260200190815260200160002060006101000a81548173ffffffffffffffffffffffffffffffffffffffff021916908373ffffffffffffffffffffffffffffffffffffffff160217905550808273ffffffffffffffffffffffffffffffffffffffff168473ffffffffffffffffffffffffffffffffffffffff167fddf252ad1be2c89b69c2b068fc378daa952ba7f163c4a11628f55a4df523b3ef60405160405180910390a46114028383836119ab565b505050565b61140f61104b565b73ffffffffffffffffffffffffffffffffffffffff1661142d610b61565b73ffffffffffffffffffffffffffffffffffffffff1614611483576040517f08c379a000000000000000000000000000000000000000000000000000000000815260040161147a9061349a565b60405180910390fd5b565b6000600a60009054906101000a900473ffffffffffffffffffffffffffffffffffffffff16905081600a60006101000a81548173ffffffffffffffffffffffffffffffffffffffff021916908373ffffffffffffffffffffffffffffffffffffffff1602179055508173ffffffffffffffffffffffffffffffffffffffff168173ffffffffffffffffffffffffffffffffffffffff167f8be0079c531659141344cd1fd0a4f28419497f9722a3daafe3b4186f6b6457e060405160405180910390a35050565b8173ffffffffffffffffffffffffffffffffffffffff168373ffffffffffffffffffffffffffffffffffffffff16036115b9576040517f08c379a00000000000000000000000000000000000000000000000000000000081526004016115b090613506565b60405180910390fd5b80600560008573ffffffffffffffffffffffffffffffffffffffff1673ffffffffffffffffffffffffffffffffffffffff16815260200190815260200160002060008473ffffffffffffffffffffffffffffffffffffffff1673ffffffffffffffffffffffffffffffffffffffff16815260200190815260200160002060006101000a81548160ff0219169083151502179055508173ffffffffffffffffffffffffffffffffffffffff168373ffffffffffffffffffffffffffffffffffffffff167f17307eab39ab6107e8899845ad3d59bd9653f200f220920489ca2b5937696c31836040516116aa919061214d565b60405180910390a3505050565b6116c28484846111a1565b6116ce848484846119b0565b61170d576040517f08c379a000000000000000000000000000000000000000000000000000000000815260040161170490613598565b60405180910390fd5b50505050565b60008073ffffffffffffffffffffffffffffffffffffffff166002600084815260200190815260200160002060009054906101000a900473ffffffffffffffffffffffffffffffffffffffff1673ffffffffffffffffffffffffffffffffffffffff1614159050919050565b6060600b805461178e9061298e565b80601f01602080910402602001604051908101604052809291908181526020018280546117ba9061298e565b80156118075780601f106117dc57610100808354040283529160200191611807565b820191906000526020600020905b8154815290600101906020018083116117ea57829003601f168201915b5050505050905090565b61182b828260405180602001604052806000815250611b37565b5050565b60007f01ffc9a7000000000000000000000000000000000000000000000000000000007bffffffffffffffffffffffffffffffffffffffffffffffffffffffff1916827bffffffffffffffffffffffffffffffffffffffffffffffffffffffff1916149050919050565b6118a4838383611b92565b600073ffffffffffffffffffffffffffffffffffffffff168373ffffffffffffffffffffffffffffffffffffffff16036118e6576118e181611b97565b611925565b8173ffffffffffffffffffffffffffffffffffffffff168373ffffffffffffffffffffffffffffffffffffffff1614611924576119238382611be0565b5b5b600073ffffffffffffffffffffffffffffffffffffffff168273ffffffffffffffffffffffffffffffffffffffff16036119675761196281611d4d565b6119a6565b8273ffffffffffffffffffffffffffffffffffffffff168273ffffffffffffffffffffffffffffffffffffffff16146119a5576119a48282611e1e565b5b5b505050565b505050565b60006119d18473ffffffffffffffffffffffffffffffffffffffff16611e9d565b15611b2a578373ffffffffffffffffffffffffffffffffffffffff1663150b7a026119fa61104b565b8786866040518563ffffffff1660e01b8152600401611a1c949392919061360d565b6020604051808303816000875af1925050508015611a5857506040513d601f19601f82011682018060405250810190611a55919061366e565b60015b611ada573d8060008114611a88576040519150601f19603f3d011682016040523d82523d6000602084013e611a8d565b606091505b506000815103611ad2576040517f08c379a0000000000000000000000000000000000000000000000000000000008152600401611ac990613598565b60405180910390fd5b805181602001fd5b63150b7a0260e01b7bffffffffffffffffffffffffffffffffffffffffffffffffffffffff1916817bffffffffffffffffffffffffffffffffffffffffffffffffffffffff191614915050611b2f565b600190505b949350505050565b611b418383611ec0565b611b4e60008484846119b0565b611b8d576040517f08c379a0000000000000000000000000000000000000000000000000000000008152600401611b8490613598565b60405180910390fd5b505050565b505050565b6008805490506009600083815260200190815260200160002081905550600881908060018154018082558091505060019003906000526020600020016000909190919091505550565b60006001611bed84610a96565b611bf7919061341a565b9050600060076000848152602001908152602001600020549050818114611cdc576000600660008673ffffffffffffffffffffffffffffffffffffffff1673ffffffffffffffffffffffffffffffffffffffff168152602001908152602001600020600084815260200190815260200160002054905080600660008773ffffffffffffffffffffffffffffffffffffffff1673ffffffffffffffffffffffffffffffffffffffff168152602001908152602001600020600084815260200190815260200160002081905550816007600083815260200190815260200160002081905550505b6007600084815260200190815260200160002060009055600660008573ffffffffffffffffffffffffffffffffffffffff1673ffffffffffffffffffffffffffffffffffffffff16815260200190815260200160002060008381526020019081526020016000206000905550505050565b60006001600880549050611d61919061341a565b9050600060096000848152602001908152602001600020549050600060088381548110611d9157611d90612e85565b5b906000526020600020015490508060088381548110611db357611db2612e85565b5b906000526020600020018190555081600960008381526020019081526020016000208190555060096000858152602001908152602001600020600090556008805480611e0257611e0161369b565b5b6001900381819060005260206000200160009055905550505050565b6000611e2983610a96565b905081600660008573ffffffffffffffffffffffffffffffffffffffff1673ffffffffffffffffffffffffffffffffffffffff168152602001908152602001600020600083815260200190815260200160002081905550806007600084815260200190815260200160002081905550505050565b6000808273ffffffffffffffffffffffffffffffffffffffff163b119050919050565b600073ffffffffffffffffffffffffffffffffffffffff168273ffffffffffffffffffffffffffffffffffffffff1603611f2f576040517f08c379a0000000000000000000000000000000000000000000000000000000008152600401611f2690613716565b60405180910390fd5b611f3881611713565b15611f78576040517f08c379a0000000000000000000000000000000000000000000000000000000008152600401611f6f90613782565b60405180910390fd5b611f8460008383611899565b6001600360008473ffffffffffffffffffffffffffffffffffffffff1673ffffffffffffffffffffffffffffffffffffffff1681526020019081526020016000206000828254611fd49190613230565b92505081905550816002600083815260200190815260200160002060006101000a81548173ffffffffffffffffffffffffffffffffffffffff021916908373ffffffffffffffffffffffffffffffffffffffff160217905550808273ffffffffffffffffffffffffffffffffffffffff16600073ffffffffffffffffffffffffffffffffffffffff167fddf252ad1be2c89b69c2b068fc378daa952ba7f163c4a11628f55a4df523b3ef60405160405180910390a4612095600083836119ab565b5050565b6000604051905090565b600080fd5b600080fd5b60007fffffffff0000000000000000000000000000000000000000000000000000000082169050919050565b6120e2816120ad565b81146120ed57600080fd5b50565b6000813590506120ff816120d9565b92915050565b60006020828403121561211b5761211a6120a3565b5b6000612129848285016120f0565b91505092915050565b60008115159050919050565b61214781612132565b82525050565b6000602082019050612162600083018461213e565b92915050565b600081519050919050565b600082825260208201905092915050565b60005b838110156121a2578082015181840152602081019050612187565b60008484015250505050565b6000601f19601f8301169050919050565b60006121ca82612168565b6121d48185612173565b93506121e4818560208601612184565b6121ed816121ae565b840191505092915050565b6000602082019050818103600083015261221281846121bf565b905092915050565b6000819050919050565b61222d8161221a565b811461223857600080fd5b50565b60008135905061224a81612224565b92915050565b600060208284031215612266576122656120a3565b5b60006122748482850161223b565b91505092915050565b600073ffffffffffffffffffffffffffffffffffffffff82169050919050565b60006122a88261227d565b9050919050565b6122b88161229d565b82525050565b60006020820190506122d360008301846122af565b92915050565b6122e28161229d565b81146122ed57600080fd5b50565b6000813590506122ff816122d9565b92915050565b6000806040838503121561231c5761231b6120a3565b5b600061232a858286016122f0565b925050602061233b8582860161223b565b9150509250929050565b61234e8161221a565b82525050565b60006020820190506123696000830184612345565b92915050565b600080600060608486031215612388576123876120a3565b5b6000612396868287016122f0565b93505060206123a7868287016122f0565b92505060406123b88682870161223b565b9150509250925092565b600080fd5b600080fd5b7f4e487b7100000000000000000000000000000000000000000000000000000000600052604160045260246000fd5b612404826121ae565b810181811067ffffffffffffffff82111715612423576124226123cc565b5b80604052505050565b6000612436612099565b905061244282826123fb565b919050565b600067ffffffffffffffff821115612462576124616123cc565b5b61246b826121ae565b9050602081019050919050565b82818337600083830152505050565b600061249a61249584612447565b61242c565b9050828152602081018484840111156124b6576124b56123c7565b5b6124c1848285612478565b509392505050565b600082601f8301126124de576124dd6123c2565b5b81356124ee848260208601612487565b91505092915050565b60006020828403121561250d5761250c6120a3565b5b600082013567ffffffffffffffff81111561252b5761252a6120a8565b5b612537848285016124c9565b91505092915050565b600060208284031215612556576125556120a3565b5b6000612564848285016122f0565b91505092915050565b600081519050919050565b600082825260208201905092915050565b6000819050602082019050919050565b6125a28161221a565b82525050565b60006125b48383612599565b60208301905092915050565b6000602082019050919050565b60006125d88261256d565b6125e28185612578565b93506125ed83612589565b8060005b8381101561261e57815161260588826125a8565b9750612610836125c0565b9250506001810190506125f1565b5085935050505092915050565b6000602082019050818103600083015261264581846125cd565b905092915050565b61265681612132565b811461266157600080fd5b50565b6000813590506126738161264d565b92915050565b600080604083850312156126905761268f6120a3565b5b600061269e858286016122f0565b92505060206126af85828601612664565b9150509250929050565b600067ffffffffffffffff8211156126d4576126d36123cc565b5b6126dd826121ae565b9050602081019050919050565b60006126fd6126f8846126b9565b61242c565b905082815260208101848484011115612719576127186123c7565b5b612724848285612478565b509392505050565b600082601f830112612741576127406123c2565b5b81356127518482602086016126ea565b91505092915050565b60008060008060808587031215612774576127736120a3565b5b6000612782878288016122f0565b9450506020612793878288016122f0565b93505060406127a48782880161223b565b925050606085013567ffffffffffffffff8111156127c5576127c46120a8565b5b6127d18782880161272c565b91505092959194509250565b600067ffffffffffffffff8211156127f8576127f76123cc565b5b602082029050602081019050919050565b600080fd5b600061282161281c846127dd565b61242c565b9050808382526020820190506020840283018581111561284457612843612809565b5b835b8181101561288b57803567ffffffffffffffff811115612869576128686123c2565b5b80860161287689826124c9565b85526020850194505050602081019050612846565b5050509392505050565b600082601f8301126128aa576128a96123c2565b5b81356128ba84826020860161280e565b91505092915050565b600080604083850312156128da576128d96120a3565b5b60006128e8858286016122f0565b925050602083013567ffffffffffffffff811115612909576129086120a8565b5b61291585828601612895565b9150509250929050565b60008060408385031215612936576129356120a3565b5b6000612944858286016122f0565b9250506020612955858286016122f0565b9150509250929050565b7f4e487b7100000000000000000000000000000000000000000000000000000000600052602260045260246000fd5b600060028204905060018216806129a657607f821691505b6020821081036129b9576129b861295f565b5b50919050565b7f4552433732313a20617070726f76616c20746f2063757272656e74206f776e6560008201527f7200000000000000000000000000000000000000000000000000000000000000602082015250565b6000612a1b602183612173565b9150612a26826129bf565b604082019050919050565b60006020820190508181036000830152612a4a81612a0e565b9050919050565b7f4552433732313a20617070726f76652063616c6c6572206973206e6f7420746f60008201527f6b656e206f776e6572206e6f7220617070726f76656420666f7220616c6c0000602082015250565b6000612aad603e83612173565b9150612ab882612a51565b604082019050919050565b60006020820190508181036000830152612adc81612aa0565b9050919050565b7f4552433732313a2063616c6c6572206973206e6f7420746f6b656e206f776e6560008201527f72206e6f7220617070726f766564000000000000000000000000000000000000602082015250565b6000612b3f602e83612173565b9150612b4a82612ae3565b604082019050919050565b60006020820190508181036000830152612b6e81612b32565b9050919050565b7f455243373231456e756d657261626c653a206f776e657220696e646578206f7560008201527f74206f6620626f756e6473000000000000000000000000000000000000000000602082015250565b6000612bd1602b83612173565b9150612bdc82612b75565b604082019050919050565b60006020820190508181036000830152612c0081612bc4565b9050919050565b60008190508160005260206000209050919050565b60006020601f8301049050919050565b600082821b905092915050565b600060088302612c697fffffffffffffffffffffffffffffffffffffffffffffffffffffffffffffffff82612c2c565b612c738683612c2c565b95508019841693508086168417925050509392505050565b6000819050919050565b6000612cb0612cab612ca68461221a565b612c8b565b61221a565b9050919050565b6000819050919050565b612cca83612c95565b612cde612cd682612cb7565b848454612c39565b825550505050565b600090565b612cf3612ce6565b612cfe818484612cc1565b505050565b5b81811015612d2257612d17600082612ceb565b600181019050612d04565b5050565b601f821115612d6757612d3881612c07565b612d4184612c1c565b81016020851015612d50578190505b612d64612d5c85612c1c565b830182612d03565b50505b505050565b600082821c905092915050565b6000612d8a60001984600802612d6c565b1980831691505092915050565b6000612da38383612d79565b9150826002028217905092915050565b612dbc82612168565b67ffffffffffffffff811115612dd557612dd46123cc565b5b612ddf825461298e565b612dea828285612d26565b600060209050601f831160018114612e1d5760008415612e0b578287015190505b612e158582612d97565b865550612e7d565b601f198416612e2b86612c07565b60005b82811015612e5357848901518255600182019150602085019450602081019050612e2e565b86831015612e705784890151612e6c601f891682612d79565b8355505b6001600288020188555050505b505050505050565b7f4e487b7100000000000000000000000000000000000000000000000000000000600052603260045260246000fd5b7f4e487b7100000000000000000000000000000000000000000000000000000000600052601160045260246000fd5b6000612eee8261221a565b91507fffffffffffffffffffffffffffffffffffffffffffffffffffffffffffffffff8203612f2057612f1f612eb4565b5b600182019050919050565b7f455243373231456e756d657261626c653a20676c6f62616c20696e646578206f60008201527f7574206f6620626f756e64730000000000000000000000000000000000000000602082015250565b6000612f87602c83612173565b9150612f9282612f2b565b604082019050919050565b60006020820190508181036000830152612fb681612f7a565b9050919050565b7f4552433732313a20696e76616c696420746f6b656e2049440000000000000000600082015250565b6000612ff3601883612173565b9150612ffe82612fbd565b602082019050919050565b6000602082019050818103600083015261302281612fe6565b9050919050565b7f4552433732313a2061646472657373207a65726f206973206e6f74206120766160008201527f6c6964206f776e65720000000000000000000000000000000000000000000000602082015250565b6000613085602983612173565b915061309082613029565b604082019050919050565b600060208201905081810360008301526130b481613078565b9050919050565b7f4552433732314d657461646174613a2055524920717565727920666f72206e6f60008201527f6e6578697374656e7420746f6b656e0000000000000000000000000000000000602082015250565b6000613117602f83612173565b9150613122826130bb565b604082019050919050565b600060208201905081810360008301526131468161310a565b9050919050565b600081905092915050565b600061316382612168565b61316d818561314d565b935061317d818560208601612184565b80840191505092915050565b600081546131968161298e565b6131a0818661314d565b945060018216600081146131bb57600181146131d057613203565b60ff1983168652811515820286019350613203565b6131d985612c07565b60005b838110156131fb578154818901526001820191506020810190506131dc565b838801955050505b50505092915050565b60006132188285613158565b91506132248284613189565b91508190509392505050565b600061323b8261221a565b91506132468361221a565b925082820190508082111561325e5761325d612eb4565b5b92915050565b7f4f776e61626c653a206e6577206f776e657220697320746865207a65726f206160008201527f6464726573730000000000000000000000000000000000000000000000000000602082015250565b60006132c0602683612173565b91506132cb82613264565b604082019050919050565b600060208201905081810360008301526132ef816132b3565b9050919050565b7f4552433732313a207472616e736665722066726f6d20696e636f72726563742060008201527f6f776e6572000000000000000000000000000000000000000000000000000000602082015250565b6000613352602583612173565b915061335d826132f6565b604082019050919050565b6000602082019050818103600083015261338181613345565b9050919050565b7f4552433732313a207472616e7366657220746f20746865207a65726f2061646460008201527f7265737300000000000000000000000000000000000000000000000000000000602082015250565b60006133e4602483612173565b91506133ef82613388565b604082019050919050565b60006020820190508181036000830152613413816133d7565b9050919050565b60006134258261221a565b91506134308361221a565b925082820390508181111561344857613447612eb4565b5b92915050565b7f4f776e61626c653a2063616c6c6572206973206e6f7420746865206f776e6572600082015250565b6000613484602083612173565b915061348f8261344e565b602082019050919050565b600060208201905081810360008301526134b381613477565b9050919050565b7f4552433732313a20617070726f766520746f2063616c6c657200000000000000600082015250565b60006134f0601983612173565b91506134fb826134ba565b602082019050919050565b6000602082019050818103600083015261351f816134e3565b9050919050565b7f4552433732313a207472616e7366657220746f206e6f6e20455243373231526560008201527f63656976657220696d706c656d656e7465720000000000000000000000000000602082015250565b6000613582603283612173565b915061358d82613526565b604082019050919050565b600060208201905081810360008301526135b181613575565b9050919050565b600081519050919050565b600082825260208201905092915050565b60006135df826135b8565b6135e981856135c3565b93506135f9818560208601612184565b613602816121ae565b840191505092915050565b600060808201905061362260008301876122af565b61362f60208301866122af565b61363c6040830185612345565b818103606083015261364e81846135d4565b905095945050505050565b600081519050613668816120d9565b92915050565b600060208284031215613684576136836120a3565b5b600061369284828501613659565b91505092915050565b7f4e487b7100000000000000000000000000000000000000000000000000000000600052603160045260246000fd5b7f4552433732313a206d696e7420746f20746865207a65726f2061646472657373600082015250565b6000613700602083612173565b915061370b826136ca565b602082019050919050565b6000602082019050818103600083015261372f816136f3565b9050919050565b7f4552433732313a20746f6b656e20616c7265616479206d696e74656400000000600082015250565b600061376c601c83612173565b915061377782613736565b602082019050919050565b6000602082019050818103600083015261379b8161375f565b905091905056fea264697066735822122073c88793937268ca38e307277cf2293c0298d58e5d9d8658222329d2c7fd7ae464736f6c6343000810003368747470733a2f2f676174657761792e70696e6174612e636c6f75642f697066732f",
  "immutableReferences": {},
  "source": "// SPDX-License-Identifier: MIT\r\npragma solidity 0.8.16;\r\n\r\nimport \"@openzeppelin/contracts/token/ERC721/extensions/ERC721Enumerable.sol\";\r\nimport \"@openzeppelin/contracts/access/Ownable.sol\";\r\n\r\ncontract Nfts is ERC721Enumerable,Ownable {\r\n    string public baseURI;//main path for nft's\r\n    mapping(uint256 => string) private _hashIPFS;//different nft's hashes\r\n\r\n    constructor (string memory _name, string memory _symbol)\r\n        ERC721(_name,_symbol)\r\n    {\r\n        baseURI =\"https://gateway.pinata.cloud/ipfs/\";\r\n    }\r\n\r\n    function mint(address _to, string[] memory _hashes) public onlyOwner{\r\n        uint256 supply=totalSupply();\r\n        for (uint256 i=0; i<_hashes.length;i++)\r\n        {\r\n            _safeMint(_to,supply+1);\r\n            _hashIPFS[supply+1]=_hashes[i];\r\n        }\r\n    }\r\n\r\n    //returns all the NFT's id's owned by an address\r\n    function walletOfOwner(address _owner) public view returns (uint256[] memory){\r\n        uint256 ownerTokenCount=balanceOf(_owner);\r\n        uint256[] memory tokenIds=new uint256[](ownerTokenCount);\r\n        for(uint256 i=0; i<ownerTokenCount; i++){\r\n            tokenIds[i]=tokenOfOwnerByIndex(_owner,i);\r\n        }\r\n        return tokenIds;\r\n    }\r\n\r\n    //returns the URL path where the NFT metadata is located\r\n    function tokenURI(uint256 tokenId) public view virtual override returns (string memory){\r\n        require(_exists(tokenId),\"ERC721Metadata: URI query for nonexistent token\");\r\n        string memory currentBaseURI=_baseURI();\r\n        return (bytes(currentBaseURI).length>0 && bytes(_hashIPFS[tokenId]).length>0)\r\n        ? string(abi.encodePacked(currentBaseURI,_hashIPFS[tokenId]))\r\n        :\"\";\r\n    }\r\n\r\n    function _baseURI() internal view virtual override returns (string memory){\r\n        return baseURI;\r\n    }\r\n\r\n    //if we want to change the NFT metadata repository \r\n    function _setBaseURI(string memory _newBaseURI) public onlyOwner{\r\n        baseURI = _newBaseURI;\r\n    }\r\n\r\n\r\n}\r\n",
  "sourcePath": "C:\\Users\\robyser\\Desktop\\NFT_Opensea\\contracts\\Nfts.sol",
  "compiler": {
    "name": "solc",
    "version": "0.8.16+commit.07a7930e.Emscripten.clang"
  },
  "schemaVersion": "3.4.9",
  "updatedAt": "2022-09-07T08:36:30.968Z",
  "networkType": "ethereum",
  "devdoc": {
    "kind": "dev",
    "methods": {
      "approve(address,uint256)": {
        "details": "See {IERC721-approve}."
      },
      "balanceOf(address)": {
        "details": "See {IERC721-balanceOf}."
      },
      "getApproved(uint256)": {
        "details": "See {IERC721-getApproved}."
      },
      "isApprovedForAll(address,address)": {
        "details": "See {IERC721-isApprovedForAll}."
      },
      "name()": {
        "details": "See {IERC721Metadata-name}."
      },
      "owner()": {
        "details": "Returns the address of the current owner."
      },
      "ownerOf(uint256)": {
        "details": "See {IERC721-ownerOf}."
      },
      "renounceOwnership()": {
        "details": "Leaves the contract without owner. It will not be possible to call `onlyOwner` functions anymore. Can only be called by the current owner. NOTE: Renouncing ownership will leave the contract without an owner, thereby removing any functionality that is only available to the owner."
      },
      "safeTransferFrom(address,address,uint256)": {
        "details": "See {IERC721-safeTransferFrom}."
      },
      "safeTransferFrom(address,address,uint256,bytes)": {
        "details": "See {IERC721-safeTransferFrom}."
      },
      "setApprovalForAll(address,bool)": {
        "details": "See {IERC721-setApprovalForAll}."
      },
      "supportsInterface(bytes4)": {
        "details": "See {IERC165-supportsInterface}."
      },
      "symbol()": {
        "details": "See {IERC721Metadata-symbol}."
      },
      "tokenByIndex(uint256)": {
        "details": "See {IERC721Enumerable-tokenByIndex}."
      },
      "tokenOfOwnerByIndex(address,uint256)": {
        "details": "See {IERC721Enumerable-tokenOfOwnerByIndex}."
      },
      "tokenURI(uint256)": {
        "details": "See {IERC721Metadata-tokenURI}."
      },
      "totalSupply()": {
        "details": "See {IERC721Enumerable-totalSupply}."
      },
      "transferFrom(address,address,uint256)": {
        "details": "See {IERC721-transferFrom}."
      },
      "transferOwnership(address)": {
        "details": "Transfers ownership of the contract to a new account (`newOwner`). Can only be called by the current owner."
      }
    },
    "version": 1
  },
  "userdoc": {
    "kind": "user",
    "methods": {},
    "version": 1
  }
}